:020000040800F2
:1000000040040020B1160008B9160008BB1600080D
:10001000BD160008BF160008C11600080000000049
:10002000000000000000000000000000C3160008EF
:10003000C516000800000000C7160008C916000811
:10004000CB160008CB160008CB160008CB1600080C
:10005000CB160008CB160008CB160008CB160008FC
:10006000CB160008CB160008CB160008CB160008EC
:10007000CB160008CB160008CB160008CB160008DC
:10008000CB160008CB160008CB160008CB160008CC
:10009000CB160008CB160008CB160008CB160008BC
:1000A000CB160008CB160008CB160008CB160008AC
:1000B000CB160008CB16000800000000CB16000885
:1000C000CB1600080000000000000000CB1600085E
:1000D00000000000CB160008CB160008000000004E
:1000E000CB160008CB160008CB160008DFF80CD0A2
:1000F00001F0F4FB00480047B3030008400400206F
:100100002DE9F04104464EF660264FF080470DE0A1
:100110003546AC4200D8A5B20021384601F08DFA30
:10012000384601F0A8FAA842FAD3641B002CEFD19C
:10013000BDE8F0813EB50121084601F0C7FC6846E4
:1001400001F05AF80720ADF800004FF6FF710020CB
:10015000ADF80410ADF80200ADF806004FF0804491
:100160006946204600F0C4FD0021204601F065FAF2
:100170000121204601F064F83EBD70B504464FF4FD
:100180007A7502E02846FFF7BBFF641EFAD270BD05
:1001900010B501F0DBFC012001F030FD212001F061
:1001A000FBFC0028FAD0002001F01CFD002001F02B
:1001B0002BFD002001F034FD002001F03DFD01F099
:1001C00009FD0028FBD1A849A648086010BDF8B574
:1001D00001210D2001F09AFC0121A44801F01CFC32
:1001E000E020ADF8000010248DF803400320A04D5E
:1001F0008DF802006946284601F082FB0F209D4ED3
:10020000ADF800006946304601F07AFBADF80040D9
:1002100014208DF803006946304601F071FB10216F
:10022000304601F04CFC1F20ADF8000048208DF84E
:1002300003006946284601F063FBBDF8001028461C
:1002400001F03DFC4FF44070ADF800008DF8034024
:100250006946284601F054FB2101284601F02DFC97
:100260006101284601F029FCF8BD70B5804D0024DD
:100270000121284601F018FC00B90124022128467A
:1002800001F012FC08B944F002040421284601F0F0
:100290000BFC08B944F004040821284601F004FCD2
:1002A00008B944F0080474494879844202D04C717A
:1002B000002003E0C879032802D2401CC87170BD39
:1002C0008A798C7124EA0200C20706D00A69521C9E
:1002D0000A615A2A01DD5A220A6182074FF032036D
:1002E0000BD50A69521E0A61322A00DA0B61D1E984
:1002F0000442944201DC521C0A6142070CD54A694F
:10030000521C4A61322A01DC134600E04B610A6943
:10031000934201DB521E4A610007D0D54869401E56
:1003200048610A28CBDA0A20486170BD2DE9F04106
:10033000DFF83C811021404601F0B6FB60B100209F
:100340004D4D01264FF40071A870002430B16E703D
:10035000404601F0B4FB05E00120F1E76C70404637
:1003600001F0ABFB2879A9784FF48077084302D0DD
:100370002C70EC7008E0286901F042FAE96801F09D
:1003800061FA07D2EE702C7039464046BDE8F04164
:1003900001F093BB686901F033FAE96801F05CFA97
:1003A000EC70F0D22E7039464046BDE8F04101F0C5
:1003B00086BB0EB54FF4FA763446FFF7E9FEFFF739
:1003C000B9FEFFF704FF00F016FA00202A4D009056
:1003D00001900346029005F10C0007C800F059FA9D
:1003E00000F019F8FFF741FFFFF7A0FF0A34A4B2AD
:1003F000B4420CD36878EA78A9788DE8070015F83C
:100400000C3B002495E807000C3D00F042FA0A205E
:10041000FFF7B3FEE4E770B5174C00252046217ABC
:1004200040890A3080B20126608181B140F2EE211C
:10043000884216D300F099F81049884205D2104935
:10044000884202DAE060257104E0267102E0B0F52E
:100450007A7F06D3658100F075F82072002800D1FC
:10046000267170BD00127A002C00002000023000BE
:1004700000080140000C0140000000200000C8C23C
:100480000000FC4270B50546002405F0010600F0AE
:1004900095F836B10620FFF733FE00F099F84020BA
:1004A00005E03C20FFF72CFE00F092F80A20FFF751
:1004B00027FE641C6D08E4B2082CE6D370BD2DE95C
:1004C000F0410024494E2546640800F077F80620E4
:1004D000FFF716FE00F07CF80C20FFF711FE10214C
:1004E000304601F0E1FA07463720FFF709FE0FB169
:1004F00044F080046D1CEDB2082DE5D32046BDE824
:10050000F08170B500F05AF84FF4F070FFF7F8FD85
:1005100000F05EF80F20FFF7F3FD0025334E2C4668
:100520001021304601F0C0FA00B901250A20FFF77A
:10053000E7FD641CE4B2182CF2D3F020FFF7E0FDD5
:10054000284670BD10B5FFF7DCFF294C48B1CC2020
:10055000FFF798FF4420FFF795FF0020207001204F
:1005600010BD01202070002010BD70B5FFF7C9FF3D
:10057000204D1F4CB0B1CC20FFF784FFBE20FFF709
:1005800081FFFFF79CFF0646FFF799FF46EA002030
:1005900000B200F55C71B1F5346F05D9022020700E
:1005A000284670BD0120FAE70021217001F028F9EA
:1005B000BDE870406FF0030101F016B90B48016807
:1005C00021F4702141F400310160102101F075BA6D
:1005D00010B5064C1021204601F071FA216821F473
:1005E000702141F40021216010BD0000000C014089
:1005F0001800002000C079C42DE9F0470E46DDE95F
:100600000987FF49DDF820901C461546884202D82C
:10061000FC49884201DDFC4913E0FC494FF07C5A5B
:1006200010F1FF4F05D201F0ADF8514601F052F83C
:1006300004E001F0A7F8514601F09EF801F0E9F856
:1006400001B2F348F34A03781278EBB1B0F90630FF
:10065000994219D183689E4216D1C3689D4213D135
:1006600043789C4210D190F802C0E1450CD190F83B
:1006700003C0E04508D103799F4205D143799A42EE
:1006800002D10020BDE8F08701230370C180C0E9DA
:100690000265447080F8029080F80380077142710F
:1006A0001846EFE72DE9F041DB4D4FF4FA742021B5
:1006B000284601F002FA4021284601F000FAD74E00
:1006C000306844F244416FF30F00084430608021E9
:1006D000284601F0F4F91420FFF712FD08213046F6
:1006E00001F0E2F907468021284601F0E6F91420DE
:1006F000FFF706FD8021284601F0E1F91420FFF7FD
:10070000FFFC8021284601F0D8F91420FFF7F8FCFF
:100710001FB1641E2404240CD9D14021284601F0C5
:10072000CCF9306842F222216FF30F0008443060A8
:10073000BDE8F0411420FFF7E3BC70B5B74D0446A7
:1007400000F001020121284601F0BBF9C4F3400288
:100750000221284601F0B5F9C4F38002042128469D
:1007600001F0AFF9C4F3C0020821284601F0A9F94D
:10077000A94C8021204601F0A2F91420FFF7C0FC0B
:100780008021204601F099F9BDE87040C820FFF7AC
:10079000B7BC70B50446FFF785FF9F4D2021284662
:1007A00001F08BF94021284601F087F92009FFF775
:1007B000C4FF04F00F00FFF7C0FFBDE87040322017
:1007C000FFF79EBC70B50446FFF76CFF924D2021E9
:1007D000284601F074F94021284601F06EF92009FD
:1007E000FFF7ABFF04F00F00FFF7A7FFBDE8704075
:1007F0003220FFF785BC10B54FF49670FFF7BDFCB3
:10080000854C2021204601F058F94021204601F076
:1008100054F98021204601F050F90320FFF78DFFA5
:100820003220FFF7AAFC0320FFF787FF1420FFF711
:10083000A4FC0320FFF781FF1420FFF79EFC022099
:10084000FFF77BFF1420FFF798FC2820FFF7A1FF9C
:100850000820FFF79EFF0120FFF79BFF0620FFF710
:1008600098FFBDE810400C2093E7012091E708B104
:10087000C02000E080200844C0B28AE7A2E710B59B
:10088000044602E0641CFFF79DFF20780028F9D1A0
:1008900010BD2DE9FF4F8BB01446DDE919A9DDF835
:1008A00060B00D4607464A46514658468DE8070057
:1008B0002246294638460E9BFFF79EFE00287CD034
:1008C0004F4820264FF03A08874202D84D488742C9
:1008D00050DD54208DF80C008DF80D8045208DF8EA
:1008E0000E0072208DF80F008DF8100049488DF829
:1008F000116041460078012803D0022803D048A7A0
:1009000002E04CA700E050A78DF8126048208DF857
:1009100013000A2095FBF0F28DF8141030328DF898
:10092000152095FBF0F200FB125230328DF81620A4
:100930004C228DF818208DF8191094FBF0F130310D
:100940008DF81A1094FBF0F100FB114030308DF857
:100950001B0000208DF817608DF81C000146FFF782
:1009600086FF03A8FFF78BFF00210120FFF77FFF21
:100970003846A5E008A9384600F0A7F854218DF8BC
:100980000C10C4468DF80D80022303AA00210DF13E
:10099000200806E018F80170D7545B1C491CDBB234
:1009A000C9B28142F6D3042802D8D6545B1CDBB20C
:1009B0004820D0545B1CD8B200E083E00A2195FBAC
:1009C000F1F302F800C0401CC0B23033135495FB61
:1009D000F1F3401C01FB1353C0B230331354401CDD
:1009E000C0B24C231654401CC0B21354401C94FB9C
:1009F000F1F3C0B202F800C0401CC0B230332DE0A9
:100A00000000C8C20000FA420080FFFF0000204141
:100A10001C0000201800002000080140000C0140CC
:100A20004453313842323020455252202020202079
:100A3000000000004453204E4F2050524553454E75
:100A400043452020000000004453204441544120ED
:100A5000494E56414C49442000000000135494FB79
:100A6000F1F3401C01FB1341C0B23031115400E0DE
:100A70001654401CC0B21028FAD300208DF81C0078
:100A8000BAF1000F06D0BBF1000F01D032A40BE089
:100A900036A409E0B9F1000F01D039A404E00E98A2
:100AA00008B13CA400E040A400210846FFF7DFFEA7
:100AB00003A8FFF7E4FE00210120FFF7D8FE20463F
:100AC000FFF7DDFE0FB0BDE8F08F70B50D460024D6
:100AD00006463A4900F056FE4FF07C5116F1FF4FA2
:100AE00002D200F0F7FD01E000F046FE00F091FEBA
:100AF000002804DA2D2129700124414200E001463A
:100B00000A22B1FBF2F064280DD36423B0FBF3F3A7
:100B100030332B55B0FBF2F3B3FBF2F602FB163386
:100B20003033641C04E00A2804D3B0FBF2F3303302
:100B30002B55641CB0FBF2F302FB13003030285538
:100B4000601C2E232B54B1FBF2F302FB1311A01CEB
:100B500030312954E01C70BD46696C6C696E6720A9
:100B600057617465722E2E2E000000005761746567
:100B700072204C61636B21202020202000000000A7
:100B8000576174657220746F6F20686F7421202024
:100B90000000000048656174696E672E2E2E2020CB
:100BA00020202020000000004E6F726D616C20201C
:100BB00052454144592020200000000000002041FF
:100BC000F94910B5884202D10121C41486E0B0F180
:100BD000804F09D0F54988420DD10121022000F053
:100BE00085FF0021022064E00121084600F07EFF1D
:100BF000002101205DE0EE49884206D10121042058
:100C000000F074FF0021042053E0EA49884206D135
:100C10000121082000F06AFF0021082049E0E64990
:100C2000884206D10121102000F060FF0021102031
:100C30003FE0E249884206D10121202000F056FF22
:100C40000021202035E0DE49884202D101214414F0
:100C500044E0DC49884202D10121CC043EE0DA497B
:100C6000884202D101210C0538E0D849884202D1DE
:100C700001214C0532E0D649884206D101214020AD
:100C800000F034FF0021402013E0D249884206D111
:100C90000121802000F02AFF0021802009E0CE49B8
:100CA00088420AD184150121204600F01FFF00214F
:100CB0002046BDE8104000F019BFC849884202D163
:100CC00001210C040AE0C649884202D101214C04EA
:100CD00004E0C44988420AD101218C04204600F076
:100CE00025FF2046BDE81040002100F01FBF10BDC9
:100CF00030B50288AC4CB24DA0420DD0A8420BD00A
:100D0000B0F1804F08D0A94B984205D0A84B98422B
:100D100002D0A84B984203D122F070034A881A43AC
:100D2000A54B984206D0A54B984203D022F44073BD
:100D3000CA881A4302808A8882850A880285A0426E
:100D40000AD0A84208D0A54A904205D0A44A9042B1
:100D500002D0A44A904201D1097A01860121818200
:100D600030BD30B5028C22F001020284028C8388EF
:100D7000048B22F0020224F073050C882C430D89A9
:100D800015434A882A43884DA8420BD08C4DA8426F
:100D900008D0924DA84205D0914DA84202D0914D65
:100DA000A8420DD122F008054A8923F440732A4352
:100DB00022F004058A882A438D891D43CB892B4361
:100DC00083800483C9888186028430BD70B5028C1B
:100DD00022F010020284028C8388048B0D8824F494
:100DE000E6464FF6FF7404EA052535430E8922F0E6
:100DF000200204EA061616434A8804EA0212324325
:100E0000694EB04202D06E4EB04215D122F080063B
:100E10004A8923F4406304EA0212324322F0400676
:100E20008A8804EA021232438E8904EA86061E4347
:100E3000CB8904EA8303334383800583C988018710
:100E4000028470BD70B5028C22F480720284028C20
:100E50008388848B0D8824F0730425430E894FF614
:100E6000FF7422F4007204EA062616434A8804EA54
:100E7000022232434C4EB04202D0514EB04215D104
:100E800022F400664A8923F4405304EA02223243E2
:100E900022F480668A8804EA022232438E8904EAB8
:100EA00006161E43CB8904EA0313334383808583EC
:100EB000C9888187028470BD70B5028C22F480528B
:100EC0000284058C8288838B0C8823F4E6464FF6D7
:100ED000FF7303EA0424344325F400560D8903EA22
:100EE000053535434E8803EA06362E432E4DA8427B
:100EF00002D0334DA84205D122F480458A8903EA05
:100F000082122A4382808483C988A0F84010068414
:100F100070BD828B22F440628283828B4FF6FF7316
:100F200003EA01210A4382837047828B22F00C027C
:100F30008283828B0A4382837047028B22F4406251
:100F40000283028B4FF6FF7303EA01210A430283F7
:100F50007047F0B5048C24F010040484078B048CD3
:100F60004FF6FF7527F4734705EA03333B4305EA61
:100F700002221A430C4B05EA011698420ED0104B80
:100F800098420BD0B0F1804F08D0084B984205D062
:100F9000074B984202D0074B984225D124F02001FC
:100FA000314341F0100124E0002C014000040040D6
:100FB00000080040000C00400010004000140040F9
:100FC00000340140004C01400050014000540140F9
:100FD00000180040001C004000200040004001407C
:100FE000004401400048014024F0A0030B4343F0BB
:100FF000100102830184F0BD028B22F00C020283F7
:10100000028B0A430283704770B5048C24F00104FC
:101010000484058B048C4FF6FF7606EA0313134312
:1010200025F0F305F84A2B4390420ED0F74A904240
:101030000BD0B0F1804F08D0F54A904205D0F54A68
:10104000904202D0F44A904202D124F0020201E020
:1010500024F00A020A4342F001010383018470BDB7
:101060002DE9F84F0D4604460888E74FDFF89CC38A
:10107000DFF89C83DFF89C934988AA882B894FF07E
:10108000804A48B304282FD04FF6FF7608289346AD
:1010900032D0208C9E4620F480502084A38B208C5C
:1010A00006EA0132009223F4734306EA0B221A4344
:1010B00006EA0E331343BC420AD0644508D05445B7
:1010C00006D0444504D04C4502D0D34A944242D184
:1010D00020F40050009940E02046FFF795FFE98892
:1010E0002046BDE8F84F87E72046FFF732FFE98842
:1010F0002046BDE8F84F20E7208C20F48070208443
:10110000B4F81CE0208C06EA031306EA01222EF054
:10111000F30E43EA0B0343EA0E030092BC420AD0EB
:10112000644508D0544506D0444504D04C4502D00F
:10113000B94A944203D120F40070009901E020F4F0
:101140002060084340F48070A3832084E98820460F
:10115000BDE8F84FE9E620F40240084340F480502F
:10116000A3832084E9882046BDE8F84FD1E62DE925
:10117000F0410C46002649880746012501B90226A0
:10118000A288012A00D10225208823890028384618
:1011900010D0FFF7DEFEE1883846FFF7CEFE238948
:1011A0002A4631463846FFF72FFFE1883846BDE82A
:1011B000F04121E7FFF728FFE1883846FFF71CFFE1
:1011C00023892A4631463846FFF7C3FEE188384670
:1011D000BDE8F041B1E610B50A884B88CC881A43C7
:1011E0008B8823431A430B891A434B8989891A43F5
:1011F0000A43A0F8442010BD4FF6FF718180002102
:101200000180C180418001727047002101804180CE
:101210008180C180018141818181C181704700212C
:101220000180418001228280C180018170470021BC
:10123000018041808180C18001814181818170472D
:101240000029018802D041F0010101E021F00101F3
:1012500001807047002930F8441F02D041F400415A
:1012600001E0C1F30E0101807047002A828901D09C
:101270000A4300E08A4382817047818270471143AC
:10128000A0F848107047002A828901D00A4300E084
:101290008A4382817047018921F0070101817047EB
:1012A000028922F070020A430281704700B50346AA
:1012B000FFF7F6FF188940F00700188100BD70B5F0
:1012C00016460D46602904464FF0010231460AD009
:1012D000FFF79AFE29462046FFF7E2FF208940F0FB
:1012E0000700208170BDFFF734FEF3E730B50489B5
:1012F0004FF6FF7505EA03231343E4B20B43234380
:10130000038130BD10B50446FFF7F0FF208940F09F
:101310007700208110BD10B50446FFF7E7FF208954
:1013200040F48040208110BD018582827047028890
:1013300022F070020A430280704770B50589048B61
:10134000068C25F007050D434FF6FC410C4040F29A
:1013500001110C434FF6FF7101EA031126F022063A
:101360001143314305810483018470BD028B22F057
:1013700070020A4302837047028B4FF6FF7322F418
:10138000E04203EA0121114301837047828B22F07E
:1013900070020A4382837047828B4FF6FF7322F4F8
:1013A000E04203EA0121114381837047002901884B
:1013B00002D041F0800101E021F0800101807047FE
:1013C0000029818802D041F0040101E021F00401EC
:1013D000818070470029818802D041F0080101E036
:1013E00021F00801818070470029818802D041F0F6
:1013F000010101E021F0010181807047028B22F0A0
:1014000008020A4302837047002C01400034014067
:101410000004004000080040000C0040028B4FF622
:10142000FF7322F4006203EA012111430183EAE71A
:10143000828B22F008020A438283E4E7828B4FF614
:10144000FF7322F4006203EA012111438183DAE78A
:10145000028B22F004020A430283D4E7028B4FF688
:10146000FF7322F4806203EA012111430183CAE77A
:10147000828B22F004020A438283C4E7828B4FF6F8
:10148000FF7322F4806203EA012111438183BAE7EA
:10149000028B22F080020A430283B4E7028B4FF6EC
:1014A000FF73C2F30E0203EA012111430183AAE78D
:1014B000828B22F080020A438283A4E7828B4FF65C
:1014C000FF73C2F30E0203EA0121114381839AE7FD
:1014D000028C22F002020A43028494E7028C22F07A
:1014E00008020A4302848EE7028C4FF6FF7322F053
:1014F000200203EA01111143018484E7028C4FF6B4
:10150000FF7322F0800203EA0111114301847AE79C
:10151000028C4FF6FF7322F4007203EA012111439B
:10152000018470E7028C4FF6FF7322F4006203EA35
:1015300001211143018466E7028C4FF6FF7322F408
:10154000005203EA0131114301845CE710B5012325
:10155000048C8B409C430484038C8A401343038493
:1015600010BD10B50423048C8B409C430484038C71
:101570008A401343038410BD30B50124058C00F16B
:1015800018038C40A543058489B108290FD0091F91
:10159000C1F34E001844016821F4E0410160016884
:1015A0004FF6FF7303EA02221143016030BD03EBE3
:1015B0005100016821F0700101600168F4E7002921
:1015C000018802D041F0020101E021F00201018016
:1015D00019E70029018802D041F0040101E021F05F
:1015E000040101800FE70029818802D041F08001C9
:1015F00001E021F08001818005E7028822F00802E5
:10160000028002880A430280FDE6828822F070028E
:10161000828082880A438280F5E6028922F00702EE
:10162000028102890A430281EDE6028922F08002EA
:10163000028102890A430281E5E68184E3E681852D
:10164000E1E68186DFE60187DDE68187DBE6A0F85B
:101650004010D8E6028822F44072028002880A43D1
:101660000280D0E6808ECEE6008FCCE6808FCAE680
:10167000B0F84000C7E6808CC5E6008DC3E60246A0
:101680000020128A0A4200D00120BCE6C943018230
:10169000B9E602460020138A92890B4202EA01024F
:1016A00002D0002A00D00120ADE6C9430182AAE69B
:1016B0000648804706480047FEE7FEE7FEE7FEE7EC
:1016C000FEE7FEE7FEE7FEE7FEE7FEE7391D00085E
:1016D000ED000008F0B480EA0102D40F4200B2EB42
:1016E000410F02D20246084611464A0042D0C30DBD
:1016F000DDB2C1F3C752AD1A202D35DAC1F31601A0
:1017000041F4000204B15242C5F1200602FA06F18A
:101710002A411044B3EBD05F23D0C4B1012DA0EB1C
:10172000C35009DCF0BC4FF0004202EAC352DBB206
:1017300000F5000000F0A3B8400000F1807000EB5D
:10174000C350A0F1807040EAD170490009E0490817
:1017500041EAC071A0EBC35000F50000400800EB67
:10176000C350F0BC00F082B86142012202EB41019B
:10177000001BF6E7F0BC704781F00041AAE780F05B
:101780000040A7E780EA010210B502F000434000E4
:1017900022D04A001FD0010E01EB1261C0F35600A7
:1017A000C2F3560240F4000042F40002A0FB022003
:1017B00000047F39140400D0401C50EA124001D4C8
:1017C0004000491EC2B20C0604EBD010401C400879
:1017D000802A02D003E0002010BD20F00100002983
:1017E00000DA0020184310BD420005D0C0F3C752F4
:1017F0005242914201DC0020704700EBC15070471B
:10180000C10F80EAE0700844CA079623002100F067
:1018100036B800F0004220F00040C10DC0F31600C1
:1018200040F400007F2901DA00207047962903DC8C
:10183000C1F19601C84001E096398840002AF4D0F1
:1018400040427047002801DBC0F10040002901DB65
:10185000C1F1004181427047002801DBC0F1004026
:10186000002901DBC1F10041884270470029A8BF6F
:101870007047401C490008BF20F00100704710B4B9
:10188000B0FA80FC00FA0CF050EA010404BF10BC6E
:10189000704749B1CCF1200421FA04F411FA0CF19B
:1018A00018BF012121430843A3EB0C01CB1D4FEAD4
:1018B00000614FEA102042BF002010BC704700EBCF
:1018C000C35010440029A4BF10BC7047401C4900FD
:1018D00008BF20F0010010BC70470000064C074D07
:1018E00006E0E06840F0010394E8070098471034F0
:1018F000AC42F6D3FEF7FEFBB81D0008D81D000869
:101900002DE9F04102460025002600200023002496
:10191000002791F803C00CF00F0591F803C00CF0FC
:10192000100CBCF1000F03D091F802C04CEA050581
:1019300091F800C0BCF1000F31D0146800202BE0FA
:101940004FF0010C0CFA00F3B1F800C00CEA0306EA
:101950009E4220D183004FF00F0C0CFA03F7BC43DA
:1019600005FA03FC4CEA040491F803C0BCF1280F0B
:1019700006D14FF0010C0CFA00FCC2F814C00AE0CA
:1019800091F803C0BCF1480F05D14FF0010C0CFADF
:1019900000FCC2F810C0401C0828D1D31460B1F874
:1019A00000C0BCF1FF0F34DD546800202EE000F1D0
:1019B000080C4FF0010808FA0CF3B1F800C00CEA6B
:1019C00003069E4221D183004FF00F0C0CFA03F75F
:1019D000BC4305FA03FC4CEA040491F803C0BCF1D3
:1019E000280F05D100F1080C08FA0CF8C2F8148091
:1019F00091F803C0BCF1480F07D100F1080C4FF07B
:101A0000010808FA0CF8C2F81080401C0828CED350
:101A10005460BDE8F0810000F0B50A4600230024C0
:101A20000021002500F00046B6F1004F02D11D4E06
:101A3000F16901E01B4E7168C0F3034583B200F405
:101A40004016B6F5401F08D121F07061154E76683A
:101A500026F07066134F7E6012E000F48016B6F533
:101A6000801F06D1032606FA05F4A14341F07061F8
:101A700006E0460D360103FA06F6B14341F0706107
:101A800022B1460D360103FA06F6314300F0004656
:101A9000B6F1004F02D1034EF16101E0014E7160D9
:101AA000F0BD0000000001400246002093680B409A
:101AB0000BB1012000E000207047416170470161D7
:101AC00070470AB1016100E04161704729B1064ADF
:101AD000D2690243044BDA6104E0034AD2698243CB
:101AE000014BDA61704700000010024029B1064A3C
:101AF00012690243044B1A6104E0034A12698243EB
:101B0000014B1A61704700000010024029B1064ADB
:101B100092690243044B9A6104E0034A926982434A
:101B2000014B9A61704700000010024029B1064A3B
:101B3000D2680243044BDA6004E0034AD26882436D
:101B4000014BDA6070470000001002400F48006847
:101B500040F001000D490860084640680C49084003
:101B60000A494860084600680A4908400749086071
:101B70000846006820F4802008600846406820F489
:101B8000FE0048604FF41F0088607047001002405C
:101B90000000FFF8FFFFF6FE10B50146002200230B
:101BA00000204A11012A02D1094C236806E0022ACA
:101BB00002D1074C236A01E0054C636A01F01F0261
:101BC000012494401C400CB1012000E0002010BD15
:101BD000001002400248406800F00C00704700000E
:101BE0000010024001460020034A506820F0F00037
:101BF000084350607047000000100240014908602F
:101C0000704700000000424201460020034A50682D
:101C100020F4E0600843506070470000001002406C
:101C200001460020034A506820F4605040EAC10099
:101C3000506070470010024001460020034A50687F
:101C400020F003000843506070470000001002407D
:101C500010B500F001F810BD0CB500200190009007
:101C60003348006840F480303149086000BF304894
:101C7000006800F4003000900198401C019000982A
:101C800018B90198B0F5A06FF1D12948006800F4A7
:101C9000003010B10120009001E000200090009879
:101CA000012843D12348006840F010002149086012
:101CB0000846006820F0030008600846006840F00D
:101CC000020008601A4840681949486008464068A0
:101CD00048600846406840F48060486008464068B4
:101CE00020F47C1048600846406840F4E8104860E2
:101CF0000846006840F08070086000BF0C4800682B
:101D000000F000700028F9D00948406820F0030076
:101D1000074948600846406840F00200486000BF3C
:101D20000348406800F00C000828F9D10CBD000001
:101D3000001002400020024010B51348006840F037
:101D400001001149086008464068104908400E49E2
:101D50004860084600680E4908400B49086008467C
:101D6000006820F4802008600846406820F4FE00E7
:101D700048604FF41F008860FFF76AFF4FF0006073
:101D80000449086010BD0000001002400000FFF888
:101D9000FFFFF6FE08ED00E002E008C8121F08C1D0
:101DA000002AFAD170477047002001E001C1121FDC
:101DB000002AFBD170470000D81D00080000002059
:101DC00040000000981D0008181E00084000002078
:101DD00000040000A81D0008000000000100000031
:101DE0000000E80300C079C43C00000028000000A7
:101DF00001000000000000000000000000000000E2
:101E00000000000000A24A040000000000000000E2
:081E10000102030406070809A2
:04000005080000ED02
:00000001FF
